{
  "genesis": {
    "gasLimit": 100000000,
    "hash": "0xa6f9b5095527aa43009934424d5be1d92d9e0a5cba49b62452515274e6fdb85a",
    "number": "5736366",
    "alloc": {
      "0x1e746760120886df65dbf975f13c8f3fd861adcd": {
        "balance": "0x0",
        "nonce": 1,
        "code": "0x60806040526004361061012a5760003560e01c806370a08231116100ab57806395d89b411161006f57806395d89b4114610589578063a0712d6814610619578063a457c2d714610654578063a9059cbb146106c7578063dd62ed3e1461073a578063f2fde38b146107bf5761012a565b806370a0823114610458578063715018a6146104bd5780638456cb59146104d45780638da5cb5b146105035780638f32d59b1461055a5761012a565b8063313ce567116100f2578063313ce5671461031b578063395093511461034c5780633f4ba83a146103bf57806342966c68146103ee5780635c975abb146104295761012a565b806306fdde031461012f578063095ea7b3146101bf57806318160ddd146102325780631ec4280a1461025d57806323b872dd14610288575b600080fd5b34801561013b57600080fd5b50610144610810565b6040518080602001828103825283818151815260200191508051906020019080838360005b83811015610184578082015181840152602081019050610169565b50505050905090810190601f1680156101b15780820380516001836020036101000a031916815260200191505b509250505060405180910390f35b3480156101cb57600080fd5b50610218600480360360408110156101e257600080fd5b81019080803573ffffffffffffffffffffffffffffffffffffffff169060200190929190803590602001909291905050506108b2565b604051808215151515815260200191505060405180910390f35b34801561023e57600080fd5b506102476108ea565b6040518082815260200191505060405180910390f35b34801561026957600080fd5b506102726108f4565b6040518082815260200191505060405180910390f35b34801561029457600080fd5b50610301600480360360608110156102ab57600080fd5b81019080803573ffffffffffffffffffffffffffffffffffffffff169060200190929190803573ffffffffffffffffffffffffffffffffffffffff16906020019092919080359060200190929190505050610917565b604051808215151515815260200191505060405180910390f35b34801561032757600080fd5b506103306109b6565b604051808260ff1660ff16815260200191505060405180910390f35b34801561035857600080fd5b506103a56004803603604081101561036f57600080fd5b81019080803573ffffffffffffffffffffffffffffffffffffffff169060200190929190803590602001909291905050506109cd565b604051808215151515815260200191505060405180910390f35b3480156103cb57600080fd5b506103d4610a9a565b604051808215151515815260200191505060405180910390f35b3480156103fa57600080fd5b506104276004803603602081101561041157600080fd5b8101908080359060200190929190505050610b7d565b005b34801561043557600080fd5b5061043e610b8a565b604051808215151515815260200191505060405180910390f35b34801561046457600080fd5b506104a76004803603602081101561047b57600080fd5b81019080803573ffffffffffffffffffffffffffffffffffffffff169060200190929190505050610b9d565b6040518082815260200191505060405180910390f35b3480156104c957600080fd5b506104d2610be6565b005b3480156104e057600080fd5b506104e9610d21565b604051808215151515815260200191505060405180910390f35b34801561050f57600080fd5b50610518610e05565b604051808273ffffffffffffffffffffffffffffffffffffffff1673ffffffffffffffffffffffffffffffffffffffff16815260200191505060405180910390f35b34801561056657600080fd5b5061056f610e2f565b604051808215151515815260200191505060405180910390f35b34801561059557600080fd5b5061059e610e8e565b6040518080602001828103825283818151815260200191508051906020019080838360005b838110156105de5780820151818401526020810190506105c3565b50505050905090810190601f16801561060b5780820380516001836020036101000a031916815260200191505b509250505060405180910390f35b34801561062557600080fd5b506106526004803603602081101561063c57600080fd5b8101908080359060200190929190505050610f30565b005b34801561066057600080fd5b506106ad6004803603604081101561067757600080fd5b81019080803573ffffffffffffffffffffffffffffffffffffffff16906020019092919080359060200190929190505050610f44565b604051808215151515815260200191505060405180910390f35b3480156106d357600080fd5b50610720600480360360408110156106ea57600080fd5b81019080803573ffffffffffffffffffffffffffffffffffffffff1690602001909291908035906020019092919050505061102b565b604051808215151515815260200191505060405180910390f35b34801561074657600080fd5b506107a96004803603604081101561075d57600080fd5b81019080803573ffffffffffffffffffffffffffffffffffffffff169060200190929190803573ffffffffffffffffffffffffffffffffffffffff169060200190929190505050611078565b6040518082815260200191505060405180910390f35b3480156107cb57600080fd5b5061080e600480360360208110156107e257600080fd5b81019080803573ffffffffffffffffffffffffffffffffffffffff1690602001909291905050506110ff565b005b606060008054600181600116156101000203166002900480601f0160208091040260200160405190810160405280929190818152602001828054600181600116156101000203166002900480156108a85780601f1061087d576101008083540402835291602001916108a8565b820191906000526020600020905b81548152906001019060200180831161088b57829003601f168201915b5050505050905090565b6000600260159054906101000a900460ff16156108ce57600080fd5b6108e06108d9611185565b848461118d565b6001905092915050565b6000600554905090565b60006109126109016108ea565b60065461138490919063ffffffff16565b905090565b60008073ffffffffffffffffffffffffffffffffffffffff168473ffffffffffffffffffffffffffffffffffffffff16141561095257600080fd5b600073ffffffffffffffffffffffffffffffffffffffff168373ffffffffffffffffffffffffffffffffffffffff16141561098c57600080fd5b6109968433611078565b8211156109a257600080fd5b6109ad8484846113ce565b90509392505050565b6000600260009054906101000a900460ff16905090565b6000600260159054906101000a900460ff16156109e957600080fd5b610a906109f4611185565b84610a8b8560046000610a05611185565b73ffffffffffffffffffffffffffffffffffffffff1673ffffffffffffffffffffffffffffffffffffffff16815260200190815260200160002060008973ffffffffffffffffffffffffffffffffffffffff1673ffffffffffffffffffffffffffffffffffffffff168152602001908152602001600020546114c190919063ffffffff16565b61118d565b6001905092915050565b6000610aa4610e2f565b610b16576040517f08c379a00000000000000000000000000000000000000000000000000000000081526004018080602001828103825260208152602001807f4f776e61626c653a2063616c6c6572206973206e6f7420746865206f776e657281525060200191505060405180910390fd5b600260159054906101000a900460ff16610b2f57600080fd5b6000600260156101000a81548160ff0219169083151502179055507f7805862f689e2f13df9f062ff482ad3ad112aca9e0847911ed832e158c525b3360405160405180910390a16001905090565b610b873382611549565b50565b600260159054906101000a900460ff1681565b6000600360008373ffffffffffffffffffffffffffffffffffffffff1673ffffffffffffffffffffffffffffffffffffffff168152602001908152602001600020549050919050565b610bee610e2f565b610c60576040517f08c379a00000000000000000000000000000000000000000000000000000000081526004018080602001828103825260208152602001807f4f776e61626c653a2063616c6c6572206973206e6f7420746865206f776e657281525060200191505060405180910390fd5b600073ffffffffffffffffffffffffffffffffffffffff16600260019054906101000a900473ffffffffffffffffffffffffffffffffffffffff1673ffffffffffffffffffffffffffffffffffffffff167f8be0079c531659141344cd1fd0a4f28419497f9722a3daafe3b4186f6b6457e060405160405180910390a36000600260016101000a81548173ffffffffffffffffffffffffffffffffffffffff021916908373ffffffffffffffffffffffffffffffffffffffff160217905550565b6000610d2b610e2f565b610d9d576040517f08c379a00000000000000000000000000000000000000000000000000000000081526004018080602001828103825260208152602001807f4f776e61626c653a2063616c6c6572206973206e6f7420746865206f776e657281525060200191505060405180910390fd5b600260159054906101000a900460ff1615610db757600080fd5b6001600260156101000a81548160ff0219169083151502179055507f6985a02210a168e66602d3235cb6db0e70f92b3ba4d376a33c0f3d9434bff62560405160405180910390a16001905090565b6000600260019054906101000a900473ffffffffffffffffffffffffffffffffffffffff16905090565b6000600260019054906101000a900473ffffffffffffffffffffffffffffffffffffffff1673ffffffffffffffffffffffffffffffffffffffff16610e72611185565b73ffffffffffffffffffffffffffffffffffffffff1614905090565b606060018054600181600116156101000203166002900480601f016020809104026020016040519081016040528092919081815260200182805460018160011615610100020316600290048015610f265780601f10610efb57610100808354040283529160200191610f26565b820191906000526020600020905b815481529060010190602001808311610f0957829003601f168201915b5050505050905090565b610f41610f3b610e05565b82611703565b50565b6000600260159054906101000a900460ff1615610f6057600080fd5b611021610f6b611185565b8461101c85604051806060016040528060258152602001611e266025913960046000610f95611185565b73ffffffffffffffffffffffffffffffffffffffff1673ffffffffffffffffffffffffffffffffffffffff16815260200190815260200160002060008a73ffffffffffffffffffffffffffffffffffffffff1673ffffffffffffffffffffffffffffffffffffffff168152602001908152602001600020546118c09092919063ffffffff16565b61118d565b6001905092915050565b60008073ffffffffffffffffffffffffffffffffffffffff168373ffffffffffffffffffffffffffffffffffffffff16141561106657600080fd5b6110708383611980565b905092915050565b6000600460008473ffffffffffffffffffffffffffffffffffffffff1673ffffffffffffffffffffffffffffffffffffffff16815260200190815260200160002060008373ffffffffffffffffffffffffffffffffffffffff1673ffffffffffffffffffffffffffffffffffffffff16815260200190815260200160002054905092915050565b611107610e2f565b611179576040517f08c379a00000000000000000000000000000000000000000000000000000000081526004018080602001828103825260208152602001807f4f776e61626c653a2063616c6c6572206973206e6f7420746865206f776e657281525060200191505060405180910390fd5b611182816119b8565b50565b600033905090565b600073ffffffffffffffffffffffffffffffffffffffff168373ffffffffffffffffffffffffffffffffffffffff161415611213576040517f08c379a0000000000000000000000000000000000000000000000000000000008152600401808060200182810382526024815260200180611eff6024913960400191505060405180910390fd5b600073ffffffffffffffffffffffffffffffffffffffff168273ffffffffffffffffffffffffffffffffffffffff161415611299576040517f08c379a0000000000000000000000000000000000000000000000000000000008152600401808060200182810382526022815260200180611ddf6022913960400191505060405180910390fd5b80600460008573ffffffffffffffffffffffffffffffffffffffff1673ffffffffffffffffffffffffffffffffffffffff16815260200190815260200160002060008473ffffffffffffffffffffffffffffffffffffffff1673ffffffffffffffffffffffffffffffffffffffff168152602001908152602001600020819055508173ffffffffffffffffffffffffffffffffffffffff168373ffffffffffffffffffffffffffffffffffffffff167f8c5be1e5ebec7d5bd14f71427d1e84f3dd0314c0f7b2291e5b200ac8c7c3b925836040518082815260200191505060405180910390a3505050565b60006113c683836040518060400160405280601e81526020017f536166654d6174683a207375627472616374696f6e206f766572666c6f7700008152506118c0565b905092915050565b6000600260159054906101000a900460ff16156113ea57600080fd5b6113f5848484611afe565b6114b684611401611185565b6114b185604051806060016040528060288152602001611ed760289139600460008b73ffffffffffffffffffffffffffffffffffffffff1673ffffffffffffffffffffffffffffffffffffffff1681526020019081526020016000206000611467611185565b73ffffffffffffffffffffffffffffffffffffffff1673ffffffffffffffffffffffffffffffffffffffff168152602001908152602001600020546118c09092919063ffffffff16565b61118d565b600190509392505050565b60008082840190508381101561153f576040517f08c379a000000000000000000000000000000000000000000000000000000000815260040180806020018281038252601b8152602001807f536166654d6174683a206164646974696f6e206f766572666c6f77000000000081525060200191505060405180910390fd5b8091505092915050565b600073ffffffffffffffffffffffffffffffffffffffff168273ffffffffffffffffffffffffffffffffffffffff1614156115cf576040517f08c379a0000000000000000000000000000000000000000000000000000000008152600401808060200182810382526021815260200180611e906021913960400191505060405180910390fd5b61163b81604051806060016040528060228152602001611e4b60229139600360008673ffffffffffffffffffffffffffffffffffffffff1673ffffffffffffffffffffffffffffffffffffffff168152602001908152602001600020546118c09092919063ffffffff16565b600360008473ffffffffffffffffffffffffffffffffffffffff1673ffffffffffffffffffffffffffffffffffffffff168152602001908152602001600020819055506116938160055461138490919063ffffffff16565b600581905550600073ffffffffffffffffffffffffffffffffffffffff168273ffffffffffffffffffffffffffffffffffffffff167fddf252ad1be2c89b69c2b068fc378daa952ba7f163c4a11628f55a4df523b3ef836040518082815260200191505060405180910390a35050565b600073ffffffffffffffffffffffffffffffffffffffff168273ffffffffffffffffffffffffffffffffffffffff1614156117a6576040517f08c379a000000000000000000000000000000000000000000000000000000000815260040180806020018281038252601f8152602001807f4b524332303a206d696e7420746f20746865207a65726f20616464726573730081525060200191505060405180910390fd5b6117bb816005546114c190919063ffffffff16565b60058190555061181381600360008573ffffffffffffffffffffffffffffffffffffffff1673ffffffffffffffffffffffffffffffffffffffff168152602001908152602001600020546114c190919063ffffffff16565b600360008473ffffffffffffffffffffffffffffffffffffffff1673ffffffffffffffffffffffffffffffffffffffff168152602001908152602001600020819055508173ffffffffffffffffffffffffffffffffffffffff16600073ffffffffffffffffffffffffffffffffffffffff167fddf252ad1be2c89b69c2b068fc378daa952ba7f163c4a11628f55a4df523b3ef836040518082815260200191505060405180910390a35050565b600083831115829061196d576040517f08c379a00000000000000000000000000000000000000000000000000000000081526004018080602001828103825283818151815260200191508051906020019080838360005b83811015611932578082015181840152602081019050611917565b50505050905090810190601f16801561195f5780820380516001836020036101000a031916815260200191505b509250505060405180910390fd5b5060008385039050809150509392505050565b6000600260159054906101000a900460ff161561199c57600080fd5b6119ae6119a7611185565b8484611afe565b6001905092915050565b600073ffffffffffffffffffffffffffffffffffffffff168173ffffffffffffffffffffffffffffffffffffffff161415611a3e576040517f08c379a0000000000000000000000000000000000000000000000000000000008152600401808060200182810382526026815260200180611db96026913960400191505060405180910390fd5b8073ffffffffffffffffffffffffffffffffffffffff16600260019054906101000a900473ffffffffffffffffffffffffffffffffffffffff1673ffffffffffffffffffffffffffffffffffffffff167f8be0079c531659141344cd1fd0a4f28419497f9722a3daafe3b4186f6b6457e060405160405180910390a380600260016101000a81548173ffffffffffffffffffffffffffffffffffffffff021916908373ffffffffffffffffffffffffffffffffffffffff16021790555050565b600073ffffffffffffffffffffffffffffffffffffffff168373ffffffffffffffffffffffffffffffffffffffff161415611b84576040517f08c379a0000000000000000000000000000000000000000000000000000000008152600401808060200182810382526025815260200180611e016025913960400191505060405180910390fd5b600073ffffffffffffffffffffffffffffffffffffffff168273ffffffffffffffffffffffffffffffffffffffff161415611c0a576040517f08c379a0000000000000000000000000000000000000000000000000000000008152600401808060200182810382526023815260200180611e6d6023913960400191505060405180910390fd5b611c7681604051806060016040528060268152602001611eb160269139600360008773ffffffffffffffffffffffffffffffffffffffff1673ffffffffffffffffffffffffffffffffffffffff168152602001908152602001600020546118c09092919063ffffffff16565b600360008573ffffffffffffffffffffffffffffffffffffffff1673ffffffffffffffffffffffffffffffffffffffff16815260200190815260200160002081905550611d0b81600360008573ffffffffffffffffffffffffffffffffffffffff1673ffffffffffffffffffffffffffffffffffffffff168152602001908152602001600020546114c190919063ffffffff16565b600360008473ffffffffffffffffffffffffffffffffffffffff1673ffffffffffffffffffffffffffffffffffffffff168152602001908152602001600020819055508173ffffffffffffffffffffffffffffffffffffffff168373ffffffffffffffffffffffffffffffffffffffff167fddf252ad1be2c89b69c2b068fc378daa952ba7f163c4a11628f55a4df523b3ef836040518082815260200191505060405180910390a350505056fe4f776e61626c653a206e6577206f776e657220697320746865207a65726f20616464726573734b524332303a20617070726f766520746f20746865207a65726f20616464726573734b524332303a207472616e736665722066726f6d20746865207a65726f20616464726573734b524332303a2064656372656173656420616c6c6f77616e63652062656c6f77207a65726f4b524332303a206275726e20616d6f756e7420657863656564732062616c616e63654b524332303a207472616e7366657220746f20746865207a65726f20616464726573734b524332303a206275726e2066726f6d20746865207a65726f20616464726573734b524332303a207472616e7366657220616d6f756e7420657863656564732062616c616e63654b524332303a207472616e7366657220616d6f756e74206578636565647320616c6c6f77616e63654b524332303a20617070726f76652066726f6d20746865207a65726f2061646472657373a265627a7a72315820f7c7efcda8b4eea0514453e005be036cde2307a5c816047192af70b61926fe7864736f6c63430005110032",
        "storage": {
          "0x0000000000000000000000000000000000000000000000000000000000000002": "0x00000000000000000000004a956d227b2045369eb00c586288acc3a1e5363712",
          "0x23e46e2dd13092fd53135ad877788a63be3af038e275115f2f51a6148fa5783e": "0x0000000000000000000000000000000000000000033b2be1974d89b742b00000",
          "0xea8e631c1a5de7fc4ca35e2b414225e22a632969a33273e3b5782715b6ebd234": "0x00000000000000000000000000000000000000000000003c3a38e5ab72fc0000"
        }
      },
      "0x4a956d227b2045369eb00c586288acc3a1e53637": {
        "balance": "0x19d94be3c65fbcb4ea66dd5",
        "nonce": 60,
        "code": "0x",
        "storage": {}
      }
    },
    "config": {
      "chainId": 242,
      "galaxiasBlock": 4823900
    }
  },
  "context": {
    "number": "5736367",
    "difficulty": "0",
    "timestamp": "1648529779",
    "gasLimit": "100000000",
    "miner": "0xD97E7BCe3fc1C0f248Cd5f87479e173DFEC7D2B1"
  },
  "input": "0xf8a83c843b9aca00827602941e746760120886df65dbf975f13c8f3fd861adcd80b844a9059cbb000000000000000000000000fb62ae373aca027177d1c18ee0862817f9080d0800000000000000000000000000000000000000000000000098a7d9b8314c00001ba05093548daa71addd3447f1f4e68d9108f8d326a38dfaea4f683cd0668586987da04da2b3c9c1401c292a5a72a4035b4cc5a860fd2cdbfeff92c8bb0bfa7df9b681",
  "result": {
    "type": "CALL",
    "from": "0x4a956d227b2045369eb00c586288acc3a1e53637",
    "to": "0x1e746760120886df65dbf975f13c8f3fd861adcd",
    "value": "0x0",
    "gas": "0x1b6a",
    "gasUsed": "0x1b6a",
    "input": "0xa9059cbb000000000000000000000000fb62ae373aca027177d1c18ee0862817f9080d0800000000000000000000000000000000000000000000000098a7d9b8314c0000",
    "error": "out of gas",
    "traceAddress": []
  }
}